:1000000067C0000082C0000080C000007EC0000009
:100010007CC000007AC0000078C0000076C00000FC
:1000200074C0000072C0000070C000006EC000000C
:100030006CC000002FC1000068C0000066C0000056
:1000400064C0000062C0000060C000005EC000002C
:100050005CC000005AC0000058C0000056C000003C
:1000600054C0000052C0000050C000004EC000004C
:100070004CC000004AC0000048C0000046C000005C
:1000800044C0000042C0000040C000001A011F012F
:100090001F011F011F011F011F0110011F011F016F
:1000A0001F011F011F011501CF00D400D900DE0080
:1000B000E300E800ED00F200F7001F011F011F013F
:1000C0001F011F011F011F01FC00010106010B019F
:1000D00011241FBECFEFD0E4DEBFCDBF11E0A0E002
:1000E000B1E0EEE9F5E000E00BBF02C007900D9231
:1000F000A430B107D9F721E0A4E0B1E001C01D921E
:10010000A032B207E1F766D148C27ACF18161906B5
:100110005CF00895000021503109E1F74F5F5F4F17
:100120008417950719F4089540E050E027E033E084
:10013000F1CF5E9888B95F9A00005F9882E090E006
:10014000E5CF0895813118F48158F3CF0895815592
:10015000F0CF089584E690E0D9DF88E3EADF86E017
:10016000E8DF8FE0E6DF81E0E4DF8AE090E0CECFF9
:1001700008955E9A88B95F9A00005F9881E090E0E8
:10018000C5CF0895E0911A018E2F90E0FC01B3973E
:10019000E232F10508F053C0EA5BFF4FF5C181E39D
:1001A000E8DF81E0CFDF4FC082E3E3DF81E0CADF39
:1001B0004AC083E3DEDF81E0C5DF45C084E3D9DFE9
:1001C00081E0C0DF40C085E3D4DF81E0BBDF3BC01E
:1001D00086E3CFDF81E0B6DF36C087E3CADF81E0A8
:1001E000B1DF31C088E3C5DF81E0ACDF2CC089E33B
:1001F000C0DF81E0A7DF27C081E4BBDF81E0A2DFB1
:1002000022C082E4B6DF81E09DDF1DC083E4B1DF60
:1002100081E098DF18C084E4ACDF81E093DF13C095
:100220008AE2A7DF81E08EDF0EC080E3A2DF81E0FB
:1002300089DF09C083E29DDF81E084DF04C080E3C1
:1002400098DF81E07FDF80E090E008958BE080938D
:1002500081008DE790E0909389008093880082E090
:1002600080936F00109285001092840080910001AD
:1002700090910101A0910201B091030180931C01B2
:1002800090931D01A0931E01B0931F018FB780684A
:100290008FBF08951F920F920FB60F9211248F9364
:1002A0009F93AF93BF9380911C0190911D01A091EA
:1002B0001E01B0911F010197A109B10980931C0192
:1002C00090931D01A0931E01B0931F01892B8A2BCF
:1002D0008B2B99F481E080931B0180910001909118
:1002E0000101A0910201B091030180931C01909340
:1002F0001D01A0931E01B0931F01BF91AF919F916B
:100300008F910F900FBE0F901F9018956093000172
:1003100070930101809302019093030160931C018B
:1003200070931D0180931E0190931F0108958FEE1D
:1003300088B90000309B29C0319B29C0329B29C05D
:10034000339B29C08FED88B90000309B26C0319BBC
:1003500026C0329B26C0339B26C08FEB88B9000095
:10036000309B23C0319B23C0329B23C0339B23C0CF
:100370008FE788B90000309B20C0319B20C0329BA2
:1003800020C0339B20C080E0089581E3089584E37A
:10039000089587E308958AE2089582E3089585E346
:1003A000089588E3089580E3089583E3089586E33C
:1003B000089589E3089583E2089581E4089582E42D
:1003C000089583E4089584E40895B1DF80931A01C9
:1003D00090E00895CF93DF9300D000D0CDB7DEB783
:1003E0008FEF81B912B88AB91BB880EF87B98FE057
:1003F00088B9B0DE0F2EF2E3EF2EF02DF12C00E0E5
:1004000010E05AE040E030E020E004C0E62EF72E95
:10041000082F192F652F742F832F922F2E2D3F2DEC
:10042000402F512F8FD05E2D4F2D302F212F611552
:1004300071058105910551F76AE070E080E090E078
:100440002E2D3F2D402F512F7DD049015A0162E3BF
:1004500070E080E090E02E2D3F2D402F512F72D084
:10046000AFE0B1E0BA83A983E4E0F1E0FC83EB8381
:100470008FEF8C9311968D929D92AD92BC921497B2
:1004800015968D929D92AD92BC92189765EE71E093
:100490001A967C936E9319978083218332834383CA
:1004A0005483258336834783508782EC90E092877C
:1004B00081876E2D7F2D802F912F28DFC7DE7E0153
:1004C00085E0E80EF11CDE0111966D01F601019147
:1004D00011916F01D80115964D915D916D917C91AF
:1004E000189711968D919D910D90BC91A02D481754
:1004F00059076A077B0781F4F80180810184F2853E
:10050000E02D082E000C990B0995D8018C93F80169
:100510001582168217821086F80185819681A7813F
:10052000B0850196A11DB11D85839683A783B087F1
:10053000CE14DF0459F680911B018823E1F3109259
:100540001B01C1CFA1E21A2EAA1BBB1BFD010DC0CE
:10055000AA1FBB1FEE1FFF1FA217B307E407F50773
:1005600020F0A21BB30BE40BF50B661F771F881F4F
:10057000991F1A9469F760957095809590959B01E5
:10058000AC01BD01CF010895EE0FFF1F0024001C38
:0E0590000BBE0790F691E02D0994F894FFCF72
:04059E000100000058
:00000001FF
